:1000000002042E008F828E83E0540100000070F8FD
:100010002278FFE4F6D8FD02048CBB010689828AAF
:1000200083E0225002E722BBFE02E32289828A8318
:10003000E49322BB010689828A83F0225002F722D0
:10004000BBFE01F322C5F0F8A3E028F0C5F0F8E507
:1000500082158270021583E038F022EF2BFFEE3A12
:10006000FEED39FDEC38FC22E88FF0A4CC8BF0A437
:100070002CFCE98EF0A42CFC8AF0EDA42CFCEA8E7A
:10008000F0A4CDA8F08BF0A42DCC3825F0FDE98F9D
:10009000F0A42CCD35F0FCEB8EF0A4FEA9F0EB8F94
:1000A000F0A4CFC5F02ECD39FEE43CFCEAA42DCE61
:1000B00035F0FDE43CFC2275F008758200EF2FFF5F
:1000C000EE33FECD33CDCC33CCC58233C5829BED30
:1000D0009AEC99E58298400CF582EE9BFEED9AFD34
:1000E000EC99FC0FD5F0D6E4CEFBE4CDFAE4CCF9E4
:1000F000A88222B800C1B90059BA002DEC8BF08457
:10010000CFCECDFCE5F0CBF97818EF2FFFEE33FE24
:10011000ED33FDEC33FCEB33FB10D703994004EBDC
:1001200099FB0FD8E5E4F9FA227818EF2FFFEE33A8
:10013000FEED33FDEC33FCC933C910D7059BE99ABA
:100140004007EC9BFCE99AF90FD8E0E4C9FAE4CC4B
:10015000FB2275F010EF2FFFEE33FEED33FDCC33B5
:10016000CCC833C810D7079BEC9AE899400AED9B9E
:10017000FDEC9AFCE899F80FD5F0DAE4CDFBE4CC7D
:10018000FAE4C8F922EF4BFFEE4AFEED49FDEC48D8
:10019000FC22EB9FF5F0EA9E42F0E99D42F0E89CDC
:1001A00045F022E8600FECC313FCED13FDEE13FEE7
:1001B000EF13FFD8F122E8600FEFC333FFEE33FEF9
:1001C000ED33FDEC33FCD8F122BB010789828A8331
:1001D0000202035005E9F80202BCBBFE05E9F80281
:1001E00002C889828A830202D4BB010789828A837A
:1001F00002021B5005E9F80202E4BBFE05E9F80221
:1002000002F022E0FCA3E0FDA3E0FEA3E0FF22E079
:10021000F8A3E0F9A3E0FAA3E0FB22ECF0A3EDF0F1
:10022000A3EEF0A3EFF022E0FBA3E0FAA3E0F922B3
:10023000EBF0A3EAF0A3E9F022E493FB740193FA54
:10024000740293F922D083D082F8E493701274017F
:1002500093700DA3A393F8740193F5828883E473DC
:100260007402936860EFA3A3A380DFE50C2582F5F9
:1002700082E50B3583F583B50B0485820C2210AF24
:100280000685820CF50B2285820CF50BD2AF22EC91
:100290008EF0A4CCC5F0CCCDF8EFA4CEC5F02DFDEA
:1002A000E43CFCE8A42EC8C5F03DFDE43CFCEFA412
:1002B000FFE5F028FEE43DFDE43CFC22E6FC08E618
:1002C000FD08E6FE08E6FF22E2FC08E2FD08E2FE89
:1002D00008E2FF22E493FC740193FD740293FE7420
:1002E0000393FF22ECF608EDF608EEF608EFF6228F
:1002F000ECF208EDF208EEF208EFF2227B007A460B
:1003000079E812086DEF4405FD7B007A4679E81222
:100310000879750A00E50AC39409503AAF0AEF75E7
:10032000F005A42488F582E43408F583AF82AE8317
:100330008E088F09AE08AF098F828E83120239AE04
:1003400008AF098F828E83740393FC740493FD12AB
:10035000081C050A80BF7B017A50790312086DEFF3
:100360004402FD7B017A5079031208797B017A50AF
:10037000791312086DEF4402FD7B017A5079131254
:1003800008797B087A007900C003C002C0017B00B5
:100390007A517912900057120230D001D002D00366
:1003A0007F087E0012073B7B087A007908C003C0F3
:1003B00002C0017B007A517960900057120230D060
:1003C00001D002D0037F0A7E0012073B904322E057
:1003D000FFEF4408FF904322EFF09046ECE0FFEF80
:1003E000C394055006904689743AF09048007431E1
:1003F000F012051B90480074B1F01206B27B007A2F
:100400004379A0C003C002C0017B007A4379B09059
:100410000057120230D001D002D0037F0E7E0012AE
:10042000073B9043B0E0FFEF54FDFFEFF0227593E0
:100430000078007583467582E8E04401F00090463C
:10044000ECE0F99046FAE0FAB903225420B4001225
:10045000B8001AEA901FFFF07401901FFEF090465A
:10046000F6F0901FFEE06005901FFFE0FA90480054
:1004700074C0F075810C90000078007920E4F0A33E
:10048000D8FCD9FAEA90004DF0020011750B1F75E7
:100490000CFD1206641202FC0204D60207D0E4939B
:1004A000A3F8E493A34003F68001F208DFF4802967
:1004B000E493A3F85407240CC8C333C4540F442056
:1004C000C8834004F456800146F6DFE4800B010245
:1004D0000408102040809007F8E47E019360BCA3DC
:1004E000FF543F30E509541FFEE493A360010ECF93
:1004F00054C025E060A840B8E493A3FAE493A3F8BD
:10050000E493A3C8C582C8CAC583CAF0A3C8C5827C
:10051000C8CAC583CADFE9DEE780BE904300740223
:10052000F09040007408F09042007403F07B0C7A65
:1005300001790812086D9046A1EFF07B007A4279AC
:10054000227D087C0012085E7B007A4279207D5172
:100550007C1212085E900056E4F07F197E007D0048
:100560007C0090005212021B900052120203D3EF43
:100570009400EE9400404E900056E0FFEF6403605C
:1005800044904225E0FFEF5401FF7E00900056E0CA
:10059000FEEE25E0FEEE4FFFEF5403FF900056EF16
:1005A000F07FE07E017D007C001207009000521277
:1005B00002037BFF7AFF79FF78FF12005B90005205
:1005C00012021B80A3900052120203EF4E70057FAF
:1005D0000312084C7B007A4079047D007C011208EC
:1005E0005E9040047407F0904006E4F09040087478
:1005F00048F0904004E4F09040017402F02290FF33
:10060000FC12026B12021B850B83850C8212020303
:10061000D3EF9400EE9480402F90004E120203120C
:100620000700850B83850C82C083C082120203EF12
:100630002400FFEE3480FEED34FFFDEC34FFFCD0EF
:1006400082D08312021B80BF900044120203850BEC
:1006500083850C8212020F120068120700900004BA
:1006600012026B22900052E4F0900052E0FFEFD3B0
:10067000941F503D900052E0FF7E02EF8EF0A4FFE9
:10068000AEF0EF2400FFEE3444FEAA06A9077B017A
:10069000C003C002C0017BFF7A087985AC02AD01BE
:1006A000D001D002D003120860900052E004F08024
:1006B000B8227B0C7A0179CF12086D900052EFF0CE
:1006C000900052E0FFEF5407FF90586EEFF090005B
:1006D00052E0FFEFC4540FFFEF540FFF90586FEF3D
:1006E000F09058767444F022905161E0FFEF54048A
:0F06F000FF7E00EF7802CEC313CE13D8F9FF229E
:10070000EC4D4E700D78FCEF24E950032840FD229B
:1007100000007BF178DA0000EF28FF78FFEE38FE6A
:10072000ED38FDEC38FC50E7EF2BFFEE38FEED38EE
:10073000FDEC38FC40F22205020304758600EF4E02
:100740006027EF60010E759300900057E0F595A3C8
:10075000E0F585A3E0F5848B938A838982E0A30585
:1007600086F0A31586DFF6DEF4E4F593F595229086
:100770000052EFF0905160E0FFEF54F7FF9000530C
:10078000EFF0900052E0FFEF33333354F8FFEF54B3
:1007900008FF900053E0FEEF4EFF905160EFF02213
:1007A000900052EFF0905160E0FFEF54FBFF90009B
:1007B00053EFF0900052E0FFEF25E025E0FFEF540B
:1007C00004FF900053E0FEEF4EFF905160EFF022E7
:1007D000D2AF9044F474FDF01206E8EFF4FF120774
:1007E000A07FF47E017D007C001205FE120835EF2B
:1007F000F4FF12076F80E122440049016E36004485
:10080000004400005DC04100481844004E2EE00046
:100810000043005A00000041005F0000EC4D6011F1
:10082000ED60010C8B938A838982E4F0A3DDFCDC0C
:10083000FA75930022905161E0FFEF5408FF7E00AB
:10084000EF7803CEC313CE13D8F9FF22900057EFF1
:10085000F0900057E0FF900057EFF080FE228B935E
:100860008A838982EDF0A3ECF0759300228B938A42
:10087000838982E0759300FF228B938A838982EDBE
:10088000F07593002280FE320051000010005120CC
:1008900000400051C000100051F000100100001095
:1008A0000001140008000140000A00014C00020091
:0508B0000150000020D2
:00000001FF
