:1000000002043D008F828E83E0540100000070F8EE
:100010002278FFE4F6D8FD02049BBB010689828AA0
:1000200083E0225002E722BBFE02E32289828A8318
:10003000E49322BB010689828A83F0225002F722D0
:10004000BBFE01F322C5F0F8A3E028F0C5F0F8E507
:1000500082158270021583E038F022EF2BFFEE3A12
:10006000FEED39FDEC38FC22E88FF0A4CC8BF0A437
:100070002CFCE98EF0A42CFC8AF0EDA42CFCEA8E7A
:10008000F0A4CDA8F08BF0A42DCC3825F0FDE98F9D
:10009000F0A42CCD35F0FCEB8EF0A4FEA9F0EB8F94
:1000A000F0A4CFC5F02ECD39FEE43CFCEAA42DCE61
:1000B00035F0FDE43CFC2275F008758200EF2FFF5F
:1000C000EE33FECD33CDCC33CCC58233C5829BED30
:1000D0009AEC99E58298400CF582EE9BFEED9AFD34
:1000E000EC99FC0FD5F0D6E4CEFBE4CDFAE4CCF9E4
:1000F000A88222B800C1B90059BA002DEC8BF08457
:10010000CFCECDFCE5F0CBF97818EF2FFFEE33FE24
:10011000ED33FDEC33FCEB33FB10D703994004EBDC
:1001200099FB0FD8E5E4F9FA227818EF2FFFEE33A8
:10013000FEED33FDEC33FCC933C910D7059BE99ABA
:100140004007EC9BFCE99AF90FD8E0E4C9FAE4CC4B
:10015000FB2275F010EF2FFFEE33FEED33FDCC33B5
:10016000CCC833C810D7079BEC9AE899400AED9B9E
:10017000FDEC9AFCE899F80FD5F0DAE4CDFBE4CC7D
:10018000FAE4C8F922EF4BFFEE4AFEED49FDEC48D8
:10019000FC22EB9FF5F0EA9E42F0E99D42F0E89CDC
:1001A00045F022E8600FECC313FCED13FDEE13FEE7
:1001B000EF13FFD8F122E8600FEFC333FFEE33FEF9
:1001C000ED33FDEC33FCD8F122BB010789828A8331
:1001D0000202035005E9F80202BCBBFE05E9F80281
:1001E00002C889828A830202D4BB010789828A837A
:1001F00002021B5005E9F80202E4BBFE05E9F80221
:1002000002F022E0FCA3E0FDA3E0FEA3E0FF22E079
:10021000F8A3E0F9A3E0FAA3E0FB22ECF0A3EDF0F1
:10022000A3EEF0A3EFF022E0FBA3E0FAA3E0F922B3
:10023000EBF0A3EAF0A3E9F022E493FB740193FA54
:10024000740293F922D083D082F8E493701274017F
:1002500093700DA3A393F8740193F5828883E473DC
:100260007402936860EFA3A3A380DFE50C2582F5F9
:1002700082E50B3583F583B50B0485820C2210AF24
:100280000685820CF50B2285820CF50BD2AF22EC91
:100290008EF0A4CCC5F0CCCDF8EFA4CEC5F02DFDEA
:1002A000E43CFCE8A42EC8C5F03DFDE43CFCEFA412
:1002B000FFE5F028FEE43DFDE43CFC22E6FC08E618
:1002C000FD08E6FE08E6FF22E2FC08E2FD08E2FE89
:1002D00008E2FF22E493FC740193FD740293FE7420
:1002E0000393FF22ECF608EDF608EEF608EFF6228F
:1002F000ECF208EDF208EEF208EFF2227B007A460B
:1003000079E81208A6EF4405FD7B007A4679E812E9
:1003100008B2750A00E50AC39409503AAF0AEF75AE
:10032000F005A424CFF582E43408F583AF82AE83D0
:100330008E088F09AE08AF098F828E83120239AE04
:1003400008AF098F828E83740393FC740493FD12AB
:10035000082D050A80BF7B087A00790012079F7B71
:10036000017A5079031208A6EF4402FD7B017A500E
:1003700079031208B27B017A5079131208A6EF4470
:1003800002FD7B017A5079131208B27B087A00795A
:100390000CC003C002C0017B007A51791290005951
:1003A000120230D001D002D0037F087E0012073B3A
:1003B0007B087A007914C003C002C0017B007A5127
:1003C0007960900059120230D001D002D0037F0A28
:1003D0007E0012073B9044F47401F0904322E0FF4A
:1003E000EF4408FF904322EFF09046ECE0FFEFC3AC
:1003F00094055006904689743AF09048007431F0A4
:1004000012052A90480074B1F01206B57B007A43B9
:1004100079A0C003C002C0017B007A4379B090008C
:1004200059120230D001D002D0037F0E7E00120795
:100430003B9043B0E0FFEF54FDFFEFF022759300D7
:1004400078007583467582E8E04401F0009046EC40
:10045000E0F99046FAE0FAB903225420B40012B849
:10046000001AEA901FFFF07401901FFEF09046F60C
:10047000F0901FFEE06005901FFFE0FA90480074C6
:10048000C0F075810C90000078007920E4F0A3D8CA
:10049000FCD9FAEA90004DF0020011750B1F750CA3
:1004A000FD1206671202FC0204E5020873E493A33E
:1004B000F8E493A34003F68001F208DFF48029E416
:1004C00093A3F85407240CC8C333C4540F4420C862
:1004D000834004F456800146F6DFE4800B010204F9
:1004E00008102040809007CCE47E019360BCA3FFFD
:1004F000543F30E509541FFEE493A360010ECF542E
:10050000C025E060A840B8E493A3FAE493A3F8E41C
:1005100093A3C8C582C8CAC583CAF0A3C8C582C888
:10052000CAC583CADFE9DEE780BE9043007402F0EB
:100530009040007408F09042007403F07B0C7A0144
:1005400079081208A69046A1EFF07B007A42792242
:100550007D087C001208977B007A4279207D517CCF
:1005600012120897900058E4F07F197E007D007CFD
:100570000090005412021B900054120203D3EF9417
:1005800000EE9400404E900058E0FFEF640360449A
:10059000904225E0FFEF5401FF7E00900058E0FEFE
:1005A000EE25E0FEEE4FFFEF5403FF900058EFF012
:1005B0007FE07E017D007C00120700900054120253
:1005C000037BFF7AFF79FF78FF12005B90005412E3
:1005D000021B80A3900054120203EF4E70057F03AC
:1005E0001208857B007A4079047D007C011208970F
:1005F0009040047407F0904006E4F090400874487E
:10060000F0904004E4F09040017402F022C0E0C099
:10061000F0C083C082C085C084C086758600C09348
:10062000759300C0D075D000C000C001C002C003E7
:10063000C004C005C006C007120846EFF4FF120749
:100640006F1206EBD007D006D005D004D003D0023D
:10065000D001D000D0D0D093D086D084D085D082A5
:10066000D083D0F0D0E032900054E4F0900054E019
:10067000FFEFD3941F503D900054E0FF7E02EF8EB9
:10068000F0A4FFAEF0EF2400FFEE3444FEAA06A96A
:10069000077B01C003C002C0017BFF7A0879CCACA4
:1006A00002AD01D001D002D003120899900054E0AD
:1006B00004F080B8227B0C7A0179CF1208A6900052
:1006C00054EFF0900054E0FFEF5407FF90586EEFA6
:1006D000F0900054E0FFEFC4540FFFEF540FFF9071
:1006E000586FEFF09058767444F022904586E0FF02
:0F06F000EF5402FF7E00EEC313FEEF13FF223222
:10070000EC4D4E700D78FCEF24E950032840FD229B
:1007100000007BF178DA0000EF28FF78FFEE38FE6A
:10072000ED38FDEC38FC50E7EF2BFFEE38FEED38EE
:10073000FDEC38FC40F22205020304758600EF4E02
:100740006027EF60010E759300900059E0F595A3C6
:10075000E0F585A3E0F5848B938A838982E0A30585
:1007600086F0A31586DFF6DEF4E4F593F595229086
:100770000052EFF0905160E0FFEF54FBFF90005308
:10078000EFF0900052E0FFEF25E025E0FFEF54048A
:10079000FF900053E0FEEF4EFF905160EFF022AC6F
:1007A000EAADA08B938A838982E0F96017A3E0F514
:1007B000EAA3E0F5A0A3E060F4FAA3E0F8A3E0F276
:1007C000DAF8D9E98DA08CEAE4F5932244004901D6
:1007D0006E360044004400005DC0410048184400EB
:1007E0004E2EE0000043005C00000041006100006C
:1007F000900054EEF0A3EFF01208C5900054E0FE14
:10080000A3E0FF12080F7F0712085D1208BE2290B6
:100810000056EEF0A3EFF07B027A44791490005674
:10082000E0FEA3E0FFAD07AC0612089922EC4D6094
:1008300011ED60010C8B938A838982E4F0A3DDFCC7
:10084000DCFA75930022905161E0FFEF5404FF7EC3
:1008500000EF7802CEC313CE13D8F9FF22900056D2
:10086000EFF0900056E0FFEFC43354E0FF90448A6D
:10087000EFF022D2AF9044F474FDF07E067F0D12AB
:1008800007F080FE22900059EFF0900059E0FF90B1
:100890000059EFF080FE228B938A838982EDF0A3CA
:1008A000ECF0759300228B938A838982E075930024
:1008B000FF228B938A838982EDF075930022904406
:1008C000C17404F0229044C97404F02280FE320006
:1008D0005100001000512000400051C00010005194
:1008E000F000100100001000011400080001400099
:0C08F0000A00014C000200015000002032
:00000001FF
